{
  "_format": "hh-sol-artifact-1",
  "contractName": "Token",
  "sourceName": "contracts/Token.sol",
  "abi": [
    {
      "inputs": [
        {
          "internalType": "string",
          "name": "name",
          "type": "string"
        },
        {
          "internalType": "string",
          "name": "symbol",
          "type": "string"
        },
        {
          "internalType": "uint256",
          "name": "maxSupply",
          "type": "uint256"
        },
        {
          "internalType": "uint256",
          "name": "premintAmount",
          "type": "uint256"
        },
        {
          "internalType": "bool",
          "name": "isBurnable_",
          "type": "bool"
        }
      ],
      "stateMutability": "nonpayable",
      "type": "constructor"
    },
    {
      "inputs": [
        {
          "internalType": "uint256",
          "name": "increasedSupply",
          "type": "uint256"
        },
        {
          "internalType": "uint256",
          "name": "cap",
          "type": "uint256"
        }
      ],
      "name": "ERC20ExceededCap",
      "type": "error"
    },
    {
      "inputs": [
        {
          "internalType": "address",
          "name": "spender",
          "type": "address"
        },
        {
          "internalType": "uint256",
          "name": "allowance",
          "type": "uint256"
        },
        {
          "internalType": "uint256",
          "name": "needed",
          "type": "uint256"
        }
      ],
      "name": "ERC20InsufficientAllowance",
      "type": "error"
    },
    {
      "inputs": [
        {
          "internalType": "address",
          "name": "sender",
          "type": "address"
        },
        {
          "internalType": "uint256",
          "name": "balance",
          "type": "uint256"
        },
        {
          "internalType": "uint256",
          "name": "needed",
          "type": "uint256"
        }
      ],
      "name": "ERC20InsufficientBalance",
      "type": "error"
    },
    {
      "inputs": [
        {
          "internalType": "address",
          "name": "approver",
          "type": "address"
        }
      ],
      "name": "ERC20InvalidApprover",
      "type": "error"
    },
    {
      "inputs": [
        {
          "internalType": "uint256",
          "name": "cap",
          "type": "uint256"
        }
      ],
      "name": "ERC20InvalidCap",
      "type": "error"
    },
    {
      "inputs": [
        {
          "internalType": "address",
          "name": "receiver",
          "type": "address"
        }
      ],
      "name": "ERC20InvalidReceiver",
      "type": "error"
    },
    {
      "inputs": [
        {
          "internalType": "address",
          "name": "sender",
          "type": "address"
        }
      ],
      "name": "ERC20InvalidSender",
      "type": "error"
    },
    {
      "inputs": [
        {
          "internalType": "address",
          "name": "spender",
          "type": "address"
        }
      ],
      "name": "ERC20InvalidSpender",
      "type": "error"
    },
    {
      "inputs": [
        {
          "internalType": "address",
          "name": "owner",
          "type": "address"
        }
      ],
      "name": "OwnableInvalidOwner",
      "type": "error"
    },
    {
      "inputs": [
        {
          "internalType": "address",
          "name": "account",
          "type": "address"
        }
      ],
      "name": "OwnableUnauthorizedAccount",
      "type": "error"
    },
    {
      "anonymous": false,
      "inputs": [
        {
          "indexed": true,
          "internalType": "address",
          "name": "owner",
          "type": "address"
        },
        {
          "indexed": true,
          "internalType": "address",
          "name": "spender",
          "type": "address"
        },
        {
          "indexed": false,
          "internalType": "uint256",
          "name": "value",
          "type": "uint256"
        }
      ],
      "name": "Approval",
      "type": "event"
    },
    {
      "anonymous": false,
      "inputs": [
        {
          "indexed": true,
          "internalType": "address",
          "name": "previousOwner",
          "type": "address"
        },
        {
          "indexed": true,
          "internalType": "address",
          "name": "newOwner",
          "type": "address"
        }
      ],
      "name": "OwnershipTransferred",
      "type": "event"
    },
    {
      "anonymous": false,
      "inputs": [
        {
          "indexed": true,
          "internalType": "address",
          "name": "from",
          "type": "address"
        },
        {
          "indexed": true,
          "internalType": "address",
          "name": "to",
          "type": "address"
        },
        {
          "indexed": false,
          "internalType": "uint256",
          "name": "value",
          "type": "uint256"
        }
      ],
      "name": "Transfer",
      "type": "event"
    },
    {
      "inputs": [
        {
          "internalType": "address",
          "name": "owner",
          "type": "address"
        },
        {
          "internalType": "address",
          "name": "spender",
          "type": "address"
        }
      ],
      "name": "allowance",
      "outputs": [
        {
          "internalType": "uint256",
          "name": "",
          "type": "uint256"
        }
      ],
      "stateMutability": "view",
      "type": "function"
    },
    {
      "inputs": [
        {
          "internalType": "address",
          "name": "spender",
          "type": "address"
        },
        {
          "internalType": "uint256",
          "name": "value",
          "type": "uint256"
        }
      ],
      "name": "approve",
      "outputs": [
        {
          "internalType": "bool",
          "name": "",
          "type": "bool"
        }
      ],
      "stateMutability": "nonpayable",
      "type": "function"
    },
    {
      "inputs": [
        {
          "internalType": "address",
          "name": "account",
          "type": "address"
        }
      ],
      "name": "balanceOf",
      "outputs": [
        {
          "internalType": "uint256",
          "name": "",
          "type": "uint256"
        }
      ],
      "stateMutability": "view",
      "type": "function"
    },
    {
      "inputs": [
        {
          "internalType": "uint256",
          "name": "value",
          "type": "uint256"
        }
      ],
      "name": "burn",
      "outputs": [],
      "stateMutability": "nonpayable",
      "type": "function"
    },
    {
      "inputs": [
        {
          "internalType": "address",
          "name": "account",
          "type": "address"
        },
        {
          "internalType": "uint256",
          "name": "value",
          "type": "uint256"
        }
      ],
      "name": "burnFrom",
      "outputs": [],
      "stateMutability": "nonpayable",
      "type": "function"
    },
    {
      "inputs": [],
      "name": "cap",
      "outputs": [
        {
          "internalType": "uint256",
          "name": "",
          "type": "uint256"
        }
      ],
      "stateMutability": "view",
      "type": "function"
    },
    {
      "inputs": [],
      "name": "decimals",
      "outputs": [
        {
          "internalType": "uint8",
          "name": "",
          "type": "uint8"
        }
      ],
      "stateMutability": "view",
      "type": "function"
    },
    {
      "inputs": [
        {
          "internalType": "address",
          "name": "spender",
          "type": "address"
        },
        {
          "internalType": "uint256",
          "name": "value",
          "type": "uint256"
        }
      ],
      "name": "forceApprove",
      "outputs": [],
      "stateMutability": "nonpayable",
      "type": "function"
    },
    {
      "inputs": [],
      "name": "isBurnable",
      "outputs": [
        {
          "internalType": "bool",
          "name": "",
          "type": "bool"
        }
      ],
      "stateMutability": "view",
      "type": "function"
    },
    {
      "inputs": [
        {
          "internalType": "address",
          "name": "to",
          "type": "address"
        },
        {
          "internalType": "uint256",
          "name": "value",
          "type": "uint256"
        }
      ],
      "name": "mint",
      "outputs": [],
      "stateMutability": "nonpayable",
      "type": "function"
    },
    {
      "inputs": [],
      "name": "name",
      "outputs": [
        {
          "internalType": "string",
          "name": "",
          "type": "string"
        }
      ],
      "stateMutability": "view",
      "type": "function"
    },
    {
      "inputs": [],
      "name": "owner",
      "outputs": [
        {
          "internalType": "address",
          "name": "",
          "type": "address"
        }
      ],
      "stateMutability": "view",
      "type": "function"
    },
    {
      "inputs": [],
      "name": "renounceOwnership",
      "outputs": [],
      "stateMutability": "nonpayable",
      "type": "function"
    },
    {
      "inputs": [],
      "name": "symbol",
      "outputs": [
        {
          "internalType": "string",
          "name": "",
          "type": "string"
        }
      ],
      "stateMutability": "view",
      "type": "function"
    },
    {
      "inputs": [],
      "name": "totalSupply",
      "outputs": [
        {
          "internalType": "uint256",
          "name": "",
          "type": "uint256"
        }
      ],
      "stateMutability": "view",
      "type": "function"
    },
    {
      "inputs": [
        {
          "internalType": "address",
          "name": "to",
          "type": "address"
        },
        {
          "internalType": "uint256",
          "name": "value",
          "type": "uint256"
        }
      ],
      "name": "transfer",
      "outputs": [
        {
          "internalType": "bool",
          "name": "",
          "type": "bool"
        }
      ],
      "stateMutability": "nonpayable",
      "type": "function"
    },
    {
      "inputs": [
        {
          "internalType": "address",
          "name": "from",
          "type": "address"
        },
        {
          "internalType": "address",
          "name": "to",
          "type": "address"
        },
        {
          "internalType": "uint256",
          "name": "value",
          "type": "uint256"
        }
      ],
      "name": "transferFrom",
      "outputs": [
        {
          "internalType": "bool",
          "name": "",
          "type": "bool"
        }
      ],
      "stateMutability": "nonpayable",
      "type": "function"
    },
    {
      "inputs": [
        {
          "internalType": "address",
          "name": "newOwner",
          "type": "address"
        }
      ],
      "name": "transferOwnership",
      "outputs": [],
      "stateMutability": "nonpayable",
      "type": "function"
    }
  ],
  "bytecode": "0x60c06040523480156200001157600080fd5b5060405162001182380380620011828339810160408190526200003491620003e2565b3383868660036200004683826200050a565b5060046200005582826200050a565b50505080600003620000825760405163392e1e2760e01b8152600060048201526024015b60405180910390fd5b6080526001600160a01b038116620000b157604051631e4fbdf760e01b81526000600482015260240162000079565b620000bc81620000d9565b50620000c933836200012b565b151560a05250620005fe92505050565b600580546001600160a01b038381166001600160a01b0319831681179093556040519116919082907f8be0079c531659141344cd1fd0a4f28419497f9722a3daafe3b4186f6b6457e090600090a35050565b6001600160a01b038216620001575760405163ec442f0560e01b81526000600482015260240162000079565b620001656000838362000169565b5050565b620001768383836200017b565b505050565b62000188838383620001e7565b6001600160a01b03831662000176576000620001a360805190565b90506000620001b160025490565b905081811115620001e05760405163279e7e1560e21b8152600481018290526024810183905260440162000079565b5050505050565b6001600160a01b038316620002165780600260008282546200020a9190620005d6565b909155506200028a9050565b6001600160a01b038316600090815260208190526040902054818110156200026b5760405163391434e360e21b81526001600160a01b0385166004820152602481018290526044810183905260640162000079565b6001600160a01b03841660009081526020819052604090209082900390555b6001600160a01b038216620002a857600280548290039055620002c7565b6001600160a01b03821660009081526020819052604090208054820190555b816001600160a01b0316836001600160a01b03167fddf252ad1be2c89b69c2b068fc378daa952ba7f163c4a11628f55a4df523b3ef836040516200030d91815260200190565b60405180910390a3505050565b634e487b7160e01b600052604160045260246000fd5b600082601f8301126200034257600080fd5b81516001600160401b03808211156200035f576200035f6200031a565b604051601f8301601f19908116603f011681019082821181831017156200038a576200038a6200031a565b8160405283815260209250866020858801011115620003a857600080fd5b600091505b83821015620003cc5785820183015181830184015290820190620003ad565b6000602085830101528094505050505092915050565b600080600080600060a08688031215620003fb57600080fd5b85516001600160401b03808211156200041357600080fd5b6200042189838a0162000330565b965060208801519150808211156200043857600080fd5b50620004478882890162000330565b9450506040860151925060608601519150608086015180151581146200046c57600080fd5b809150509295509295909350565b600181811c908216806200048f57607f821691505b602082108103620004b057634e487b7160e01b600052602260045260246000fd5b50919050565b601f82111562000176576000816000526020600020601f850160051c81016020861015620004e15750805b601f850160051c820191505b818110156200050257828155600101620004ed565b505050505050565b81516001600160401b038111156200052657620005266200031a565b6200053e816200053784546200047a565b84620004b6565b602080601f8311600181146200057657600084156200055d5750858301515b600019600386901b1c1916600185901b17855562000502565b600085815260208120601f198616915b82811015620005a75788860151825594840194600190910190840162000586565b5085821015620005c65787850151600019600388901b60f8161c191681555b5050505050600190811b01905550565b80820180821115620005f857634e487b7160e01b600052601160045260246000fd5b92915050565b60805160a051610b49620006396000396000818161023a015281816103d1015261044e0152600081816101a701526107fd0152610b496000f3fe608060405234801561001057600080fd5b50600436106101165760003560e01c806370a08231116100a25780638da5cb5b116100715780638da5cb5b1461025c57806395d89b4114610277578063a9059cbb1461027f578063dd62ed3e14610292578063f2fde38b146102cb57600080fd5b806370a08231146101f1578063715018a61461021a57806379cc679014610222578063883356d91461023557600080fd5b806323b872dd116100e957806323b872dd14610183578063313ce56714610196578063355274ea146101a557806340c10f19146101cb57806342966c68146101de57600080fd5b806306fdde031461011b578063076c702a14610139578063095ea7b31461014e57806318160ddd14610171575b600080fd5b6101236102de565b6040516101309190610979565b60405180910390f35b61014c6101473660046109e4565b610370565b005b61016161015c3660046109e4565b61037f565b6040519015158152602001610130565b6002545b604051908152602001610130565b610161610191366004610a0e565b610399565b60405160128152602001610130565b7f0000000000000000000000000000000000000000000000000000000000000000610175565b61014c6101d93660046109e4565b6103bd565b61014c6101ec366004610a4a565b6103cf565b6101756101ff366004610a63565b6001600160a01b031660009081526020819052604090205490565b61014c610438565b61014c6102303660046109e4565b61044c565b6101617f000000000000000000000000000000000000000000000000000000000000000081565b6005546040516001600160a01b039091168152602001610130565b6101236104ae565b61016161028d3660046109e4565b6104bd565b6101756102a0366004610a85565b6001600160a01b03918216600090815260016020908152604080832093909416825291909152205490565b61014c6102d9366004610a63565b6104cb565b6060600380546102ed90610ab8565b80601f016020809104026020016040519081016040528092919081815260200182805461031990610ab8565b80156103665780601f1061033b57610100808354040283529160200191610366565b820191906000526020600020905b81548152906001019060200180831161034957829003601f168201915b5050505050905090565b61037b338383610506565b5050565b60003361038d818585610506565b60019150505b92915050565b6000336103a7858285610518565b6103b2858585610596565b506001949350505050565b6103c56105f5565b61037b8282610622565b7f000000000000000000000000000000000000000000000000000000000000000061042c5760405162461bcd60e51b8152602060048201526008602482015267111254d05093115160c21b60448201526064015b60405180910390fd5b61043581610658565b50565b6104406105f5565b61044a6000610662565b565b7f00000000000000000000000000000000000000000000000000000000000000006104a45760405162461bcd60e51b8152602060048201526008602482015267111254d05093115160c21b6044820152606401610423565b61037b82826106b4565b6060600480546102ed90610ab8565b60003361038d818585610596565b6104d36105f5565b6001600160a01b0381166104fd57604051631e4fbdf760e01b815260006004820152602401610423565b61043581610662565b61051383838360016106c9565b505050565b6001600160a01b038381166000908152600160209081526040808320938616835292905220546000198114610590578181101561058157604051637dc7a0d960e11b81526001600160a01b03841660048201526024810182905260448101839052606401610423565b610590848484840360006106c9565b50505050565b6001600160a01b0383166105c057604051634b637e8f60e11b815260006004820152602401610423565b6001600160a01b0382166105ea5760405163ec442f0560e01b815260006004820152602401610423565b61051383838361079e565b6005546001600160a01b0316331461044a5760405163118cdaa760e01b8152336004820152602401610423565b6001600160a01b03821661064c5760405163ec442f0560e01b815260006004820152602401610423565b61037b6000838361079e565b61043533826107a9565b600580546001600160a01b038381166001600160a01b0319831681179093556040519116919082907f8be0079c531659141344cd1fd0a4f28419497f9722a3daafe3b4186f6b6457e090600090a35050565b6106bf823383610518565b61037b82826107a9565b6001600160a01b0384166106f35760405163e602df0560e01b815260006004820152602401610423565b6001600160a01b03831661071d57604051634a1406b160e11b815260006004820152602401610423565b6001600160a01b038085166000908152600160209081526040808320938716835292905220829055801561059057826001600160a01b0316846001600160a01b03167f8c5be1e5ebec7d5bd14f71427d1e84f3dd0314c0f7b2291e5b200ac8c7c3b9258460405161079091815260200190565b60405180910390a350505050565b6105138383836107df565b6001600160a01b0382166107d357604051634b637e8f60e11b815260006004820152602401610423565b61037b8260008361079e565b6107ea83838361084f565b6001600160a01b038316610513576002547f000000000000000000000000000000000000000000000000000000000000000090818111156108485760405163279e7e1560e21b81526004810182905260248101839052604401610423565b5050505050565b6001600160a01b03831661087a57806002600082825461086f9190610af2565b909155506108ec9050565b6001600160a01b038316600090815260208190526040902054818110156108cd5760405163391434e360e21b81526001600160a01b03851660048201526024810182905260448101839052606401610423565b6001600160a01b03841660009081526020819052604090209082900390555b6001600160a01b03821661090857600280548290039055610927565b6001600160a01b03821660009081526020819052604090208054820190555b816001600160a01b0316836001600160a01b03167fddf252ad1be2c89b69c2b068fc378daa952ba7f163c4a11628f55a4df523b3ef8360405161096c91815260200190565b60405180910390a3505050565b60006020808352835180602085015260005b818110156109a75785810183015185820160400152820161098b565b506000604082860101526040601f19601f8301168501019250505092915050565b80356001600160a01b03811681146109df57600080fd5b919050565b600080604083850312156109f757600080fd5b610a00836109c8565b946020939093013593505050565b600080600060608486031215610a2357600080fd5b610a2c846109c8565b9250610a3a602085016109c8565b9150604084013590509250925092565b600060208284031215610a5c57600080fd5b5035919050565b600060208284031215610a7557600080fd5b610a7e826109c8565b9392505050565b60008060408385031215610a9857600080fd5b610aa1836109c8565b9150610aaf602084016109c8565b90509250929050565b600181811c90821680610acc57607f821691505b602082108103610aec57634e487b7160e01b600052602260045260246000fd5b50919050565b8082018082111561039357634e487b7160e01b600052601160045260246000fdfea264697066735822122003a98f7f6087b00fbb6d28a1cf928b00eceb471d718738d8ead41c5996fc52dd64736f6c63430008180033",
  "linkReferences": {},
  "deployedLinkReferences": {}
}