{
  "_format": "hh-sol-artifact-1",
  "contractName": "PreSale",
  "sourceName": "contracts/PreSale.sol",
  "abi": [
    {
      "inputs": [
        {
          "components": [
            {
              "internalType": "contract IERC20",
              "name": "token",
              "type": "address"
            },
            {
              "internalType": "contract IERC20",
              "name": "paymentToken",
              "type": "address"
            },
            {
              "internalType": "uint256",
              "name": "supply",
              "type": "uint256"
            },
            {
              "internalType": "uint128",
              "name": "price",
              "type": "uint128"
            },
            {
              "internalType": "uint96",
              "name": "minParticipationAmount",
              "type": "uint96"
            },
            {
              "internalType": "uint128",
              "name": "maxParticipationAmount",
              "type": "uint128"
            },
            {
              "internalType": "uint40",
              "name": "startTime",
              "type": "uint40"
            },
            {
              "internalType": "uint40",
              "name": "endTime",
              "type": "uint40"
            }
          ],
          "internalType": "struct PreSale.OfferingConfig",
          "name": "offeringConfig",
          "type": "tuple"
        },
        {
          "components": [
            {
              "internalType": "contract ISablierV2LockupLinear",
              "name": "sablierLockupLinear",
              "type": "address"
            },
            {
              "internalType": "contract ISablierV2Batch",
              "name": "sablierBatch",
              "type": "address"
            },
            {
              "internalType": "uint40",
              "name": "cliffDuration",
              "type": "uint40"
            },
            {
              "internalType": "uint40",
              "name": "vestingDuration",
              "type": "uint40"
            }
          ],
          "internalType": "struct PreSale.VestingConfig",
          "name": "vestingConfig",
          "type": "tuple"
        }
      ],
      "stateMutability": "nonpayable",
      "type": "constructor"
    },
    {
      "inputs": [],
      "name": "AlreadyClaimed",
      "type": "error"
    },
    {
      "inputs": [],
      "name": "EndSmallerThanNow",
      "type": "error"
    },
    {
      "inputs": [],
      "name": "EndSmallerThanStart",
      "type": "error"
    },
    {
      "inputs": [],
      "name": "InvalidAmount",
      "type": "error"
    },
    {
      "inputs": [],
      "name": "MaxAmountReached",
      "type": "error"
    },
    {
      "inputs": [],
      "name": "MaxSmallerThanMin",
      "type": "error"
    },
    {
      "inputs": [],
      "name": "MinAmountRequired",
      "type": "error"
    },
    {
      "inputs": [
        {
          "internalType": "address",
          "name": "owner",
          "type": "address"
        }
      ],
      "name": "OwnableInvalidOwner",
      "type": "error"
    },
    {
      "inputs": [
        {
          "internalType": "address",
          "name": "account",
          "type": "address"
        }
      ],
      "name": "OwnableUnauthorizedAccount",
      "type": "error"
    },
    {
      "inputs": [],
      "name": "PriceZero",
      "type": "error"
    },
    {
      "inputs": [],
      "name": "SaleNotActive",
      "type": "error"
    },
    {
      "inputs": [],
      "name": "SaleNotEnded",
      "type": "error"
    },
    {
      "inputs": [],
      "name": "SupplyZero",
      "type": "error"
    },
    {
      "anonymous": false,
      "inputs": [
        {
          "indexed": true,
          "internalType": "address",
          "name": "previousOwner",
          "type": "address"
        },
        {
          "indexed": true,
          "internalType": "address",
          "name": "newOwner",
          "type": "address"
        }
      ],
      "name": "OwnershipTransferred",
      "type": "event"
    },
    {
      "inputs": [
        {
          "internalType": "uint128",
          "name": "amount",
          "type": "uint128"
        }
      ],
      "name": "buy",
      "outputs": [],
      "stateMutability": "nonpayable",
      "type": "function"
    },
    {
      "inputs": [],
      "name": "claim",
      "outputs": [
        {
          "internalType": "uint256",
          "name": "",
          "type": "uint256"
        }
      ],
      "stateMutability": "nonpayable",
      "type": "function"
    },
    {
      "inputs": [
        {
          "internalType": "address",
          "name": "userAddress",
          "type": "address"
        }
      ],
      "name": "claimToUser",
      "outputs": [
        {
          "internalType": "uint256",
          "name": "streamId",
          "type": "uint256"
        }
      ],
      "stateMutability": "nonpayable",
      "type": "function"
    },
    {
      "inputs": [
        {
          "internalType": "address[]",
          "name": "users",
          "type": "address[]"
        }
      ],
      "name": "claimToUserBatch",
      "outputs": [
        {
          "internalType": "uint256[]",
          "name": "",
          "type": "uint256[]"
        }
      ],
      "stateMutability": "nonpayable",
      "type": "function"
    },
    {
      "inputs": [],
      "name": "cliffDuration",
      "outputs": [
        {
          "internalType": "uint40",
          "name": "",
          "type": "uint40"
        }
      ],
      "stateMutability": "view",
      "type": "function"
    },
    {
      "inputs": [],
      "name": "endTime",
      "outputs": [
        {
          "internalType": "uint40",
          "name": "",
          "type": "uint40"
        }
      ],
      "stateMutability": "view",
      "type": "function"
    },
    {
      "inputs": [],
      "name": "maxParticipationAmount",
      "outputs": [
        {
          "internalType": "uint128",
          "name": "",
          "type": "uint128"
        }
      ],
      "stateMutability": "view",
      "type": "function"
    },
    {
      "inputs": [],
      "name": "minParticipationAmount",
      "outputs": [
        {
          "internalType": "uint96",
          "name": "",
          "type": "uint96"
        }
      ],
      "stateMutability": "view",
      "type": "function"
    },
    {
      "inputs": [],
      "name": "offeringPrice",
      "outputs": [
        {
          "internalType": "uint128",
          "name": "",
          "type": "uint128"
        }
      ],
      "stateMutability": "view",
      "type": "function"
    },
    {
      "inputs": [],
      "name": "offeringSupply",
      "outputs": [
        {
          "internalType": "uint256",
          "name": "",
          "type": "uint256"
        }
      ],
      "stateMutability": "view",
      "type": "function"
    },
    {
      "inputs": [],
      "name": "offeringToken",
      "outputs": [
        {
          "internalType": "contract IERC20",
          "name": "",
          "type": "address"
        }
      ],
      "stateMutability": "view",
      "type": "function"
    },
    {
      "inputs": [],
      "name": "owner",
      "outputs": [
        {
          "internalType": "address",
          "name": "",
          "type": "address"
        }
      ],
      "stateMutability": "view",
      "type": "function"
    },
    {
      "inputs": [],
      "name": "paymentToken",
      "outputs": [
        {
          "internalType": "contract IERC20",
          "name": "",
          "type": "address"
        }
      ],
      "stateMutability": "view",
      "type": "function"
    },
    {
      "inputs": [],
      "name": "renounceOwnership",
      "outputs": [],
      "stateMutability": "nonpayable",
      "type": "function"
    },
    {
      "inputs": [],
      "name": "sablierBatch",
      "outputs": [
        {
          "internalType": "contract ISablierV2Batch",
          "name": "",
          "type": "address"
        }
      ],
      "stateMutability": "view",
      "type": "function"
    },
    {
      "inputs": [],
      "name": "sablierLockupLinear",
      "outputs": [
        {
          "internalType": "contract ISablierV2LockupLinear",
          "name": "",
          "type": "address"
        }
      ],
      "stateMutability": "view",
      "type": "function"
    },
    {
      "inputs": [
        {
          "internalType": "uint128",
          "name": "offeringPrice_",
          "type": "uint128"
        }
      ],
      "name": "setOfferingPrice",
      "outputs": [],
      "stateMutability": "nonpayable",
      "type": "function"
    },
    {
      "inputs": [
        {
          "internalType": "uint96",
          "name": "minParticipationAmount_",
          "type": "uint96"
        },
        {
          "internalType": "uint96",
          "name": "maxParticipationAmount_",
          "type": "uint96"
        }
      ],
      "name": "setParticipationAmounts",
      "outputs": [],
      "stateMutability": "nonpayable",
      "type": "function"
    },
    {
      "inputs": [
        {
          "internalType": "uint32",
          "name": "startTime_",
          "type": "uint32"
        },
        {
          "internalType": "uint32",
          "name": "endTime_",
          "type": "uint32"
        }
      ],
      "name": "setSalePeriod",
      "outputs": [],
      "stateMutability": "nonpayable",
      "type": "function"
    },
    {
      "inputs": [],
      "name": "startTime",
      "outputs": [
        {
          "internalType": "uint40",
          "name": "",
          "type": "uint40"
        }
      ],
      "stateMutability": "view",
      "type": "function"
    },
    {
      "inputs": [
        {
          "internalType": "address",
          "name": "newOwner",
          "type": "address"
        }
      ],
      "name": "transferOwnership",
      "outputs": [],
      "stateMutability": "nonpayable",
      "type": "function"
    },
    {
      "inputs": [
        {
          "internalType": "address",
          "name": "user",
          "type": "address"
        }
      ],
      "name": "userInfo",
      "outputs": [
        {
          "internalType": "uint256",
          "name": "streamId",
          "type": "uint256"
        },
        {
          "internalType": "uint128",
          "name": "boughtAmount",
          "type": "uint128"
        }
      ],
      "stateMutability": "view",
      "type": "function"
    },
    {
      "inputs": [],
      "name": "vestingDuration",
      "outputs": [
        {
          "internalType": "uint40",
          "name": "",
          "type": "uint40"
        }
      ],
      "stateMutability": "view",
      "type": "function"
    },
    {
      "inputs": [],
      "name": "withdrawPaymentToken",
      "outputs": [],
      "stateMutability": "nonpayable",
      "type": "function"
    }
  ],
  "bytecode": "0x6101206040523480156200001257600080fd5b5060405162001d6a38038062001d6a8339810160408190526200003591620004fe565b33806200005c57604051631e4fbdf760e01b81526000600482015260240160405180910390fd5b620000678162000368565b5081604001516000036200008e57604051639fbba64f60e01b815260040160405180910390fd5b81606001516001600160801b0316600003620000bd57604051637294708f60e11b815260040160405180910390fd5b8160c0015164ffffffffff168260e0015164ffffffffff161015620000f557604051631ff3638560e21b815260040160405180910390fd5b428260e0015164ffffffffff1610156200012257604051636e9740e960e01b815260040160405180910390fd5b81608001516001600160601b03168260a001516001600160801b031610156200015e57604051630741001960e41b815260040160405180910390fd5b81516001600160a01b039081166080818152602080860151841660a090815260c0808801516000805460e0808c015164ffffffffff908116600160c81b0264ffffffffff60c81b19958216600160a01b0295909516600160a01b600160f01b031990931692909217939093179091556040808b0151938490526060808c0151978c015160018054978e01516001600160801b039081169a16600160801b026001600160801b031916999099176002558b518b1694859052968b01519099166101005289810151988a0151821665010000000000026001600160501b03196001600160601b039097166a010000000000000000000002969096166001600160b01b03199095169490941797169690961792909217909255905163095ea7b360e01b8152600481019390935260248301529063095ea7b3906044016020604051808303816000875af1158015620002b7573d6000803e3d6000fd5b505050506040513d601f19601f82011682018060405250810190620002dd9190620005d8565b506080516101005160c05160405163095ea7b360e01b81526001600160a01b039283166004820152602481019190915291169063095ea7b3906044016020604051808303816000875af115801562000339573d6000803e3d6000fd5b505050506040513d601f19601f820116820180604052508101906200035f9190620005d8565b50505062000603565b600080546001600160a01b038381166001600160a01b0319831681178455604051919092169283917f8be0079c531659141344cd1fd0a4f28419497f9722a3daafe3b4186f6b6457e09190a35050565b60405161010081016001600160401b0381118282101715620003ea57634e487b7160e01b600052604160045260246000fd5b60405290565b6001600160a01b03811681146200040657600080fd5b50565b80516200041681620003f0565b919050565b80516001600160801b03811681146200041657600080fd5b80516001600160601b03811681146200041657600080fd5b805164ffffffffff811681146200041657600080fd5b6000608082840312156200047457600080fd5b604051608081016001600160401b0381118282101715620004a557634e487b7160e01b600052604160045260246000fd5b80604052508091508251620004ba81620003f0565b81526020830151620004cc81620003f0565b6020820152620004df604084016200044b565b6040820152620004f2606084016200044b565b60608201525092915050565b6000808284036101808112156200051457600080fd5b610100808212156200052557600080fd5b6200052f620003b8565b915084516200053e81620003f0565b82526200054e6020860162000409565b6020830152604085015160408301526200056b606086016200041b565b60608301526200057e6080860162000433565b60808301526200059160a086016200041b565b60a0830152620005a460c086016200044b565b60c0830152620005b760e086016200044b565b60e0830152819350620005cd8682870162000461565b925050509250929050565b600060208284031215620005eb57600080fd5b81518015158114620005fc57600080fd5b9392505050565b60805160a05160c05160e051610100516116ea62000680600039600081816103560152610f4d0152600081816102d1015281816109850152610f7a0152600061024e0152600081816101f70152818161066a0152610ac301526000818161039001528181610833015281816109010152610f9c01526116ea6000f3fe608060405234801561001057600080fd5b50600436106101585760003560e01c806387c96fec116100c3578063b78136071161007c578063b78136071461038b578063d85349f7146103b2578063e0037379146103c3578063ed7d5bc9146103ee578063f2fde38b1461040e578063fe9f2a101461042157600080fd5b806387c96fec146102f35780638da5cb5b146103065780639437399714610317578063a07a2ee714610349578063a4f1885a14610351578063a6a0a6f61461037857600080fd5b80634e71d92d116101155780634e71d92d1461027e57806358db52a214610286578063715018a61461029957806376ba5d62146102a157806378e97925146102b457806379f6f2aa146102cc57600080fd5b80631514617e1461015d5780631959a002146101905780632b03a17a146101dd5780633013ce29146101f25780633197cbb61461023157806332dbb2c714610249575b600080fd5b60015461017590600160281b900464ffffffffff1681565b60405164ffffffffff90911681526020015b60405180910390f35b6101c061019e366004611183565b600360205260009081526040902080546001909101546001600160801b031682565b604080519283526001600160801b03909116602083015201610187565b6101f06101eb3660046111cf565b61043b565b005b6102197f000000000000000000000000000000000000000000000000000000000000000081565b6040516001600160a01b039091168152602001610187565b60005461017590600160c81b900464ffffffffff1681565b6102707f000000000000000000000000000000000000000000000000000000000000000081565b604051908152602001610187565b6102706104b9565b6101f0610294366004611202565b6104c9565b6101f06106dd565b6102706102af366004611183565b6106f1565b60005461017590600160a01b900464ffffffffff1681565b6102197f000000000000000000000000000000000000000000000000000000000000000081565b6101f0610301366004611202565b610a24565b6000546001600160a01b0316610219565b60015461033190600160501b90046001600160601b031681565b6040516001600160601b039091168152602001610187565b6101f0610a75565b6102197f000000000000000000000000000000000000000000000000000000000000000081565b6101f061038636600461123f565b610bb2565b6102197f000000000000000000000000000000000000000000000000000000000000000081565b6001546101759064ffffffffff1681565b6002546103d6906001600160801b031681565b6040516001600160801b039091168152602001610187565b6104016103fc366004611269565b610c4b565b60405161018791906112de565b6101f061041c366004611183565b6110c6565b6002546103d690600160801b90046001600160801b031681565b610443611106565b816001600160601b0316816001600160601b0316101561047657604051630741001960e41b815260040160405180910390fd5b600180546001600160601b03938416600160501b026bffffffffffffffffffffffff60501b19909116179055600280546001600160801b03191691909216179055565b60006104c4336106f1565b905090565b600054600160a01b900464ffffffffff164210806104f65750600054600160c81b900464ffffffffff1642115b156105145760405163b7b2409760e01b815260040160405180910390fd5b33600090815260036020526040902060025460018201546001600160801b039182169161054391859116611338565b6001600160801b0316111561056b5760405163393ff8f760e21b815260040160405180910390fd5b6001805490820154600160501b9091046001600160601b0316906105999084906001600160801b0316611338565b6001600160801b031610156105c1576040516301b53c1960e01b815260040160405180910390fd5b60018101546105da9083906001600160801b0316611338565b33600090815260036020526040812060010180546001600160801b0319166001600160801b039384161790556002549091670de0b6b3a76400009161062891600160801b909104168561135f565b610632919061138a565b6040516323b872dd60e01b81523360048201523060248201526001600160801b03919091166044820181905291506001600160a01b037f000000000000000000000000000000000000000000000000000000000000000016906323b872dd906064016020604051808303816000875af11580156106b3573d6000803e3d6000fd5b505050506040513d601f19601f820116820180604052508101906106d791906113be565b50505050565b6106e5611106565b6106ef6000611133565b565b6001600160a01b0381166000908152600360209081526040808320815180830190925280548252600101546001600160801b0316918101919091528154600160c81b900464ffffffffff1642101561075c57604051639d98b04b60e01b815260040160405180910390fd5b80511561077c57604051630c8d9eab60e31b815260040160405180910390fd5b80602001516001600160801b03166000036107aa5760405163162908e360e11b815260040160405180910390fd5b6000805460015464ffffffffff600160c81b909204821692916107ce9116836113e0565b6001549091506000906107ef90600160281b900464ffffffffff16846113e0565b90508064ffffffffff1642106108cc57602084015160405163a9059cbb60e01b81526001600160a01b0388811660048301526001600160801b0390921660248201527f00000000000000000000000000000000000000000000000000000000000000009091169063a9059cbb906044016020604051808303816000875af115801561087e573d6000803e3d6000fd5b505050506040513d601f19601f820116820180604052508101906108a291906113be565b5050506001600160a01b039093166000908152600360205260409020600019908190559392505050565b60408051610100810182523081526001600160a01b03888116602080840191909152878101516001600160801b0316838501527f00000000000000000000000000000000000000000000000000000000000000008216606080850191909152600060808501819052600160a08601528551918201865264ffffffffff808a1683528881168385015287168287015260c0850191909152845180860186528181529182015260e083015291516396ce143160e01b815290917f000000000000000000000000000000000000000000000000000000000000000016906396ce1431906109ba9084906004016113fe565b6020604051808303816000875af11580156109d9573d6000803e3d6000fd5b505050506040513d601f19601f820116820180604052508101906109fd91906114c0565b6001600160a01b039097166000908152600360205260409020879055509495945050505050565b610a2c611106565b806001600160801b0316600003610a5657604051637294708f60e11b815260040160405180910390fd5b600280546001600160801b03928316600160801b029216919091179055565b610a7d611106565b600054600160c81b900464ffffffffff16421015610aae57604051639d98b04b60e01b815260040160405180910390fd5b6040516370a0823160e01b81523060048201527f00000000000000000000000000000000000000000000000000000000000000006001600160a01b03169063a9059cbb90339083906370a0823190602401602060405180830381865afa158015610b1c573d6000803e3d6000fd5b505050506040513d601f19601f82011682018060405250810190610b4091906114c0565b6040516001600160e01b031960e085901b1681526001600160a01b03909216600483015260248201526044016020604051808303816000875af1158015610b8b573d6000803e3d6000fd5b505050506040513d601f19601f82011682018060405250810190610baf91906113be565b50565b610bba611106565b8163ffffffff168163ffffffff161015610be757604051631ff3638560e21b815260040160405180910390fd5b428163ffffffff161015610c0e57604051636e9740e960e01b815260040160405180910390fd5b6000805469ffffffffffffffffffff60a01b191663ffffffff938416600160a01b0264ffffffffff60c81b19161791909216600160c81b02179055565b600054606090600160c81b900464ffffffffff16421015610c7f57604051639d98b04b60e01b815260040160405180910390fd5b600154600054610ca79164ffffffffff600160281b909104811691600160c81b9004166113e0565b64ffffffffff16421115610cce57604051636e9740e960e01b815260040160405180910390fd5b60008267ffffffffffffffff811115610ce957610ce96114d9565b604051908082528060200260200182016040528015610d7b57816020015b610d686040805160e081018252600080825260208083018290528284018290526060808401839052608084018390528451908101855282815280820183905280850183905260a084015283518085019094528184528301529060c082015290565b815260200190600190039081610d075790505b50905060005b83811015610f32576000858583818110610d9d57610d9d6114ef565b9050602002016020810190610db29190611183565b6001600160a01b038116600090815260036020908152604091829020825180840190935280548084526001909101546001600160801b0316918301919091529192509015610e01575050610f2a565b80602001516001600160801b0316600003610e1d575050610f2a565b6040805160e0810182523081526001600160a01b03841660208083018290526000918252600381528382206001908101546001600160801b0316848601526060808501849052608085018290528551908101909552915464ffffffffff600160c81b90910481168086529254939460a0860194909392840192610ea49291909116906113e0565b64ffffffffff9081168252600154600054602090930192610ed892600160281b909204821691600160c81b909104166113e0565b64ffffffffff168152508152602001604051806040016040528060006001600160a01b031681526020016000815250815250848481518110610f1c57610f1c6114ef565b602002602001018190525050505b600101610d81565b50604051634d9c59cd60e11b81526000906001600160a01b037f00000000000000000000000000000000000000000000000000000000000000001690639b38b39a90610fc6907f0000000000000000000000000000000000000000000000000000000000000000907f0000000000000000000000000000000000000000000000000000000000000000908790600401611505565b6000604051808303816000875af1158015610fe5573d6000803e3d6000fd5b505050506040513d6000823e601f3d908101601f1916820160405261100d91908101906115f6565b905060005b848110156110bd57600086868381811061102e5761102e6114ef565b90506020020160208101906110439190611183565b6001600160a01b038116600090815260036020526040812054919250036110b457828281518110611076576110766114ef565b60200260200101516001600160801b031660036000836001600160a01b03166001600160a01b03168152602001908152602001600020600001819055505b50600101611012565b50949350505050565b6110ce611106565b6001600160a01b0381166110fd57604051631e4fbdf760e01b8152600060048201526024015b60405180910390fd5b610baf81611133565b6000546001600160a01b031633146106ef5760405163118cdaa760e01b81523360048201526024016110f4565b600080546001600160a01b038381166001600160a01b0319831681178455604051919092169283917f8be0079c531659141344cd1fd0a4f28419497f9722a3daafe3b4186f6b6457e09190a35050565b60006020828403121561119557600080fd5b81356001600160a01b03811681146111ac57600080fd5b9392505050565b80356001600160601b03811681146111ca57600080fd5b919050565b600080604083850312156111e257600080fd5b6111eb836111b3565b91506111f9602084016111b3565b90509250929050565b60006020828403121561121457600080fd5b81356001600160801b03811681146111ac57600080fd5b803563ffffffff811681146111ca57600080fd5b6000806040838503121561125257600080fd5b61125b8361122b565b91506111f96020840161122b565b6000806020838503121561127c57600080fd5b823567ffffffffffffffff8082111561129457600080fd5b818501915085601f8301126112a857600080fd5b8135818111156112b757600080fd5b8660208260051b85010111156112cc57600080fd5b60209290920196919550909350505050565b6020808252825182820181905260009190848201906040850190845b81811015611316578351835292840192918401916001016112fa565b50909695505050505050565b634e487b7160e01b600052601160045260246000fd5b6001600160801b0381811683821601908082111561135857611358611322565b5092915050565b6001600160801b0381811683821602808216919082811461138257611382611322565b505092915050565b60006001600160801b03808416806113b257634e487b7160e01b600052601260045260246000fd5b92169190910492915050565b6000602082840312156113d057600080fd5b815180151581146111ac57600080fd5b64ffffffffff81811683821601908082111561135857611358611322565b81516001600160a01b0390811682526020808401518216908301526040808401516001600160801b031690830152606080840151909116908201526080808301516101608301916114529084018215159052565b5060a083015161146660a084018215159052565b5060c083015161149960c0840182805164ffffffffff908116835260208083015182169084015260409182015116910152565b5060e083015180516001600160a01b03166101208401526020810151610140840152611358565b6000602082840312156114d257600080fd5b5051919050565b634e487b7160e01b600052604160045260246000fd5b634e487b7160e01b600052603260045260246000fd5b6000606080830160018060a01b038088168552602081881660208701526040606060408801528388518086526080955060808901915060208a0160005b828110156115e457815180518816855286810151881687860152858101516001600160801b0316868601528981015115158a8601528881015115158986015260a080820151805164ffffffffff908116838901526020820151811660c089015260408201511660e0880152505060c0015180516001600160a01b0316610100860152602081015161012086015250610140939093019290850190600101611542565b50919c9b505050505050505050505050565b6000602080838503121561160957600080fd5b825167ffffffffffffffff8082111561162157600080fd5b818501915085601f83011261163557600080fd5b815181811115611647576116476114d9565b8060051b604051601f19603f8301168101818110858211171561166c5761166c6114d9565b60405291825284820192508381018501918883111561168a57600080fd5b938501935b828510156116a85784518452938501939285019261168f565b9897505050505050505056fea26469706673582212201f2757bd2f4588e9acba1b2bf12001312a73e31d485b8cb172994ea8fae9683a64736f6c63430008180033",
  "linkReferences": {},
  "deployedLinkReferences": {}
}