{
  "_format": "hh-sol-artifact-1",
  "contractName": "Token",
  "sourceName": "contracts/Token.sol",
  "abi": [
    {
      "inputs": [
        {
          "internalType": "string",
          "name": "name",
          "type": "string"
        },
        {
          "internalType": "string",
          "name": "symbol",
          "type": "string"
        },
        {
          "internalType": "uint256",
          "name": "maxSupply",
          "type": "uint256"
        },
        {
          "internalType": "uint256",
          "name": "premintAmount",
          "type": "uint256"
        },
        {
          "internalType": "bool",
          "name": "isBurnable_",
          "type": "bool"
        }
      ],
      "stateMutability": "nonpayable",
      "type": "constructor"
    },
    {
      "inputs": [
        {
          "internalType": "uint256",
          "name": "increasedSupply",
          "type": "uint256"
        },
        {
          "internalType": "uint256",
          "name": "cap",
          "type": "uint256"
        }
      ],
      "name": "ERC20ExceededCap",
      "type": "error"
    },
    {
      "inputs": [
        {
          "internalType": "address",
          "name": "spender",
          "type": "address"
        },
        {
          "internalType": "uint256",
          "name": "allowance",
          "type": "uint256"
        },
        {
          "internalType": "uint256",
          "name": "needed",
          "type": "uint256"
        }
      ],
      "name": "ERC20InsufficientAllowance",
      "type": "error"
    },
    {
      "inputs": [
        {
          "internalType": "address",
          "name": "sender",
          "type": "address"
        },
        {
          "internalType": "uint256",
          "name": "balance",
          "type": "uint256"
        },
        {
          "internalType": "uint256",
          "name": "needed",
          "type": "uint256"
        }
      ],
      "name": "ERC20InsufficientBalance",
      "type": "error"
    },
    {
      "inputs": [
        {
          "internalType": "address",
          "name": "approver",
          "type": "address"
        }
      ],
      "name": "ERC20InvalidApprover",
      "type": "error"
    },
    {
      "inputs": [
        {
          "internalType": "uint256",
          "name": "cap",
          "type": "uint256"
        }
      ],
      "name": "ERC20InvalidCap",
      "type": "error"
    },
    {
      "inputs": [
        {
          "internalType": "address",
          "name": "receiver",
          "type": "address"
        }
      ],
      "name": "ERC20InvalidReceiver",
      "type": "error"
    },
    {
      "inputs": [
        {
          "internalType": "address",
          "name": "sender",
          "type": "address"
        }
      ],
      "name": "ERC20InvalidSender",
      "type": "error"
    },
    {
      "inputs": [
        {
          "internalType": "address",
          "name": "spender",
          "type": "address"
        }
      ],
      "name": "ERC20InvalidSpender",
      "type": "error"
    },
    {
      "inputs": [
        {
          "internalType": "address",
          "name": "owner",
          "type": "address"
        }
      ],
      "name": "OwnableInvalidOwner",
      "type": "error"
    },
    {
      "inputs": [
        {
          "internalType": "address",
          "name": "account",
          "type": "address"
        }
      ],
      "name": "OwnableUnauthorizedAccount",
      "type": "error"
    },
    {
      "anonymous": false,
      "inputs": [
        {
          "indexed": true,
          "internalType": "address",
          "name": "owner",
          "type": "address"
        },
        {
          "indexed": true,
          "internalType": "address",
          "name": "spender",
          "type": "address"
        },
        {
          "indexed": false,
          "internalType": "uint256",
          "name": "value",
          "type": "uint256"
        }
      ],
      "name": "Approval",
      "type": "event"
    },
    {
      "anonymous": false,
      "inputs": [
        {
          "indexed": true,
          "internalType": "address",
          "name": "previousOwner",
          "type": "address"
        },
        {
          "indexed": true,
          "internalType": "address",
          "name": "newOwner",
          "type": "address"
        }
      ],
      "name": "OwnershipTransferred",
      "type": "event"
    },
    {
      "anonymous": false,
      "inputs": [
        {
          "indexed": true,
          "internalType": "address",
          "name": "from",
          "type": "address"
        },
        {
          "indexed": true,
          "internalType": "address",
          "name": "to",
          "type": "address"
        },
        {
          "indexed": false,
          "internalType": "uint256",
          "name": "value",
          "type": "uint256"
        }
      ],
      "name": "Transfer",
      "type": "event"
    },
    {
      "inputs": [
        {
          "internalType": "address",
          "name": "owner",
          "type": "address"
        },
        {
          "internalType": "address",
          "name": "spender",
          "type": "address"
        }
      ],
      "name": "allowance",
      "outputs": [
        {
          "internalType": "uint256",
          "name": "",
          "type": "uint256"
        }
      ],
      "stateMutability": "view",
      "type": "function"
    },
    {
      "inputs": [
        {
          "internalType": "address",
          "name": "spender",
          "type": "address"
        },
        {
          "internalType": "uint256",
          "name": "value",
          "type": "uint256"
        }
      ],
      "name": "approve",
      "outputs": [
        {
          "internalType": "bool",
          "name": "",
          "type": "bool"
        }
      ],
      "stateMutability": "nonpayable",
      "type": "function"
    },
    {
      "inputs": [
        {
          "internalType": "address",
          "name": "account",
          "type": "address"
        }
      ],
      "name": "balanceOf",
      "outputs": [
        {
          "internalType": "uint256",
          "name": "",
          "type": "uint256"
        }
      ],
      "stateMutability": "view",
      "type": "function"
    },
    {
      "inputs": [
        {
          "internalType": "uint256",
          "name": "value",
          "type": "uint256"
        }
      ],
      "name": "burn",
      "outputs": [],
      "stateMutability": "nonpayable",
      "type": "function"
    },
    {
      "inputs": [
        {
          "internalType": "address",
          "name": "account",
          "type": "address"
        },
        {
          "internalType": "uint256",
          "name": "value",
          "type": "uint256"
        }
      ],
      "name": "burnFrom",
      "outputs": [],
      "stateMutability": "nonpayable",
      "type": "function"
    },
    {
      "inputs": [],
      "name": "cap",
      "outputs": [
        {
          "internalType": "uint256",
          "name": "",
          "type": "uint256"
        }
      ],
      "stateMutability": "view",
      "type": "function"
    },
    {
      "inputs": [],
      "name": "decimals",
      "outputs": [
        {
          "internalType": "uint8",
          "name": "",
          "type": "uint8"
        }
      ],
      "stateMutability": "view",
      "type": "function"
    },
    {
      "inputs": [],
      "name": "isBurnable",
      "outputs": [
        {
          "internalType": "bool",
          "name": "",
          "type": "bool"
        }
      ],
      "stateMutability": "view",
      "type": "function"
    },
    {
      "inputs": [
        {
          "internalType": "address",
          "name": "to",
          "type": "address"
        },
        {
          "internalType": "uint256",
          "name": "value",
          "type": "uint256"
        }
      ],
      "name": "mint",
      "outputs": [],
      "stateMutability": "nonpayable",
      "type": "function"
    },
    {
      "inputs": [],
      "name": "name",
      "outputs": [
        {
          "internalType": "string",
          "name": "",
          "type": "string"
        }
      ],
      "stateMutability": "view",
      "type": "function"
    },
    {
      "inputs": [],
      "name": "owner",
      "outputs": [
        {
          "internalType": "address",
          "name": "",
          "type": "address"
        }
      ],
      "stateMutability": "view",
      "type": "function"
    },
    {
      "inputs": [],
      "name": "renounceOwnership",
      "outputs": [],
      "stateMutability": "nonpayable",
      "type": "function"
    },
    {
      "inputs": [],
      "name": "symbol",
      "outputs": [
        {
          "internalType": "string",
          "name": "",
          "type": "string"
        }
      ],
      "stateMutability": "view",
      "type": "function"
    },
    {
      "inputs": [],
      "name": "totalSupply",
      "outputs": [
        {
          "internalType": "uint256",
          "name": "",
          "type": "uint256"
        }
      ],
      "stateMutability": "view",
      "type": "function"
    },
    {
      "inputs": [
        {
          "internalType": "address",
          "name": "to",
          "type": "address"
        },
        {
          "internalType": "uint256",
          "name": "value",
          "type": "uint256"
        }
      ],
      "name": "transfer",
      "outputs": [
        {
          "internalType": "bool",
          "name": "",
          "type": "bool"
        }
      ],
      "stateMutability": "nonpayable",
      "type": "function"
    },
    {
      "inputs": [
        {
          "internalType": "address",
          "name": "from",
          "type": "address"
        },
        {
          "internalType": "address",
          "name": "to",
          "type": "address"
        },
        {
          "internalType": "uint256",
          "name": "value",
          "type": "uint256"
        }
      ],
      "name": "transferFrom",
      "outputs": [
        {
          "internalType": "bool",
          "name": "",
          "type": "bool"
        }
      ],
      "stateMutability": "nonpayable",
      "type": "function"
    },
    {
      "inputs": [
        {
          "internalType": "address",
          "name": "newOwner",
          "type": "address"
        }
      ],
      "name": "transferOwnership",
      "outputs": [],
      "stateMutability": "nonpayable",
      "type": "function"
    }
  ],
  "bytecode": "0x60c06040523480156200001157600080fd5b5060405162001159380380620011598339810160408190526200003491620003e2565b3383868660036200004683826200050a565b5060046200005582826200050a565b50505080600003620000825760405163392e1e2760e01b8152600060048201526024015b60405180910390fd5b6080526001600160a01b038116620000b157604051631e4fbdf760e01b81526000600482015260240162000079565b620000bc81620000d9565b50620000c933836200012b565b151560a05250620005fe92505050565b600580546001600160a01b038381166001600160a01b0319831681179093556040519116919082907f8be0079c531659141344cd1fd0a4f28419497f9722a3daafe3b4186f6b6457e090600090a35050565b6001600160a01b038216620001575760405163ec442f0560e01b81526000600482015260240162000079565b620001656000838362000169565b5050565b620001768383836200017b565b505050565b62000188838383620001e7565b6001600160a01b03831662000176576000620001a360805190565b90506000620001b160025490565b905081811115620001e05760405163279e7e1560e21b8152600481018290526024810183905260440162000079565b5050505050565b6001600160a01b038316620002165780600260008282546200020a9190620005d6565b909155506200028a9050565b6001600160a01b038316600090815260208190526040902054818110156200026b5760405163391434e360e21b81526001600160a01b0385166004820152602481018290526044810183905260640162000079565b6001600160a01b03841660009081526020819052604090209082900390555b6001600160a01b038216620002a857600280548290039055620002c7565b6001600160a01b03821660009081526020819052604090208054820190555b816001600160a01b0316836001600160a01b03167fddf252ad1be2c89b69c2b068fc378daa952ba7f163c4a11628f55a4df523b3ef836040516200030d91815260200190565b60405180910390a3505050565b634e487b7160e01b600052604160045260246000fd5b600082601f8301126200034257600080fd5b81516001600160401b03808211156200035f576200035f6200031a565b604051601f8301601f19908116603f011681019082821181831017156200038a576200038a6200031a565b8160405283815260209250866020858801011115620003a857600080fd5b600091505b83821015620003cc5785820183015181830184015290820190620003ad565b6000602085830101528094505050505092915050565b600080600080600060a08688031215620003fb57600080fd5b85516001600160401b03808211156200041357600080fd5b6200042189838a0162000330565b965060208801519150808211156200043857600080fd5b50620004478882890162000330565b9450506040860151925060608601519150608086015180151581146200046c57600080fd5b809150509295509295909350565b600181811c908216806200048f57607f821691505b602082108103620004b057634e487b7160e01b600052602260045260246000fd5b50919050565b601f82111562000176576000816000526020600020601f850160051c81016020861015620004e15750805b601f850160051c820191505b818110156200050257828155600101620004ed565b505050505050565b81516001600160401b038111156200052657620005266200031a565b6200053e816200053784546200047a565b84620004b6565b602080601f8311600181146200057657600084156200055d5750858301515b600019600386901b1c1916600185901b17855562000502565b600085815260208120601f198616915b82811015620005a75788860151825594840194600190910190840162000586565b5085821015620005c65787850151600019600388901b60f8161c191681555b5050505050600190811b01905550565b80820180821115620005f857634e487b7160e01b600052601160045260246000fd5b92915050565b60805160a051610b20620006396000396000818161021c015281816103a8015261042501526000818161018701526107d40152610b206000f3fe608060405234801561001057600080fd5b506004361061010b5760003560e01c806370a08231116100a25780638da5cb5b116100715780638da5cb5b1461023e57806395d89b4114610259578063a9059cbb14610261578063dd62ed3e14610274578063f2fde38b146102ad57600080fd5b806370a08231146101d3578063715018a6146101fc57806379cc679014610204578063883356d91461021757600080fd5b8063313ce567116100de578063313ce56714610176578063355274ea1461018557806340c10f19146101ab57806342966c68146101c057600080fd5b806306fdde0314610110578063095ea7b31461012e57806318160ddd1461015157806323b872dd14610163575b600080fd5b6101186102c0565b6040516101259190610950565b60405180910390f35b61014161013c3660046109bb565b610352565b6040519015158152602001610125565b6002545b604051908152602001610125565b6101416101713660046109e5565b61036c565b60405160128152602001610125565b7f0000000000000000000000000000000000000000000000000000000000000000610155565b6101be6101b93660046109bb565b610390565b005b6101be6101ce366004610a21565b6103a6565b6101556101e1366004610a3a565b6001600160a01b031660009081526020819052604090205490565b6101be61040f565b6101be6102123660046109bb565b610423565b6101417f000000000000000000000000000000000000000000000000000000000000000081565b6005546040516001600160a01b039091168152602001610125565b610118610485565b61014161026f3660046109bb565b610494565b610155610282366004610a5c565b6001600160a01b03918216600090815260016020908152604080832093909416825291909152205490565b6101be6102bb366004610a3a565b6104a2565b6060600380546102cf90610a8f565b80601f01602080910402602001604051908101604052809291908181526020018280546102fb90610a8f565b80156103485780601f1061031d57610100808354040283529160200191610348565b820191906000526020600020905b81548152906001019060200180831161032b57829003601f168201915b5050505050905090565b6000336103608185856104dd565b60019150505b92915050565b60003361037a8582856104ef565b61038585858561056d565b506001949350505050565b6103986105cc565b6103a282826105f9565b5050565b7f00000000000000000000000000000000000000000000000000000000000000006104035760405162461bcd60e51b8152602060048201526008602482015267111254d05093115160c21b60448201526064015b60405180910390fd5b61040c8161062f565b50565b6104176105cc565b6104216000610639565b565b7f000000000000000000000000000000000000000000000000000000000000000061047b5760405162461bcd60e51b8152602060048201526008602482015267111254d05093115160c21b60448201526064016103fa565b6103a2828261068b565b6060600480546102cf90610a8f565b60003361036081858561056d565b6104aa6105cc565b6001600160a01b0381166104d457604051631e4fbdf760e01b8152600060048201526024016103fa565b61040c81610639565b6104ea83838360016106a0565b505050565b6001600160a01b038381166000908152600160209081526040808320938616835292905220546000198114610567578181101561055857604051637dc7a0d960e11b81526001600160a01b038416600482015260248101829052604481018390526064016103fa565b610567848484840360006106a0565b50505050565b6001600160a01b03831661059757604051634b637e8f60e11b8152600060048201526024016103fa565b6001600160a01b0382166105c15760405163ec442f0560e01b8152600060048201526024016103fa565b6104ea838383610775565b6005546001600160a01b031633146104215760405163118cdaa760e01b81523360048201526024016103fa565b6001600160a01b0382166106235760405163ec442f0560e01b8152600060048201526024016103fa565b6103a260008383610775565b61040c3382610780565b600580546001600160a01b038381166001600160a01b0319831681179093556040519116919082907f8be0079c531659141344cd1fd0a4f28419497f9722a3daafe3b4186f6b6457e090600090a35050565b6106968233836104ef565b6103a28282610780565b6001600160a01b0384166106ca5760405163e602df0560e01b8152600060048201526024016103fa565b6001600160a01b0383166106f457604051634a1406b160e11b8152600060048201526024016103fa565b6001600160a01b038085166000908152600160209081526040808320938716835292905220829055801561056757826001600160a01b0316846001600160a01b03167f8c5be1e5ebec7d5bd14f71427d1e84f3dd0314c0f7b2291e5b200ac8c7c3b9258460405161076791815260200190565b60405180910390a350505050565b6104ea8383836107b6565b6001600160a01b0382166107aa57604051634b637e8f60e11b8152600060048201526024016103fa565b6103a282600083610775565b6107c1838383610826565b6001600160a01b0383166104ea576002547f0000000000000000000000000000000000000000000000000000000000000000908181111561081f5760405163279e7e1560e21b815260048101829052602481018390526044016103fa565b5050505050565b6001600160a01b0383166108515780600260008282546108469190610ac9565b909155506108c39050565b6001600160a01b038316600090815260208190526040902054818110156108a45760405163391434e360e21b81526001600160a01b038516600482015260248101829052604481018390526064016103fa565b6001600160a01b03841660009081526020819052604090209082900390555b6001600160a01b0382166108df576002805482900390556108fe565b6001600160a01b03821660009081526020819052604090208054820190555b816001600160a01b0316836001600160a01b03167fddf252ad1be2c89b69c2b068fc378daa952ba7f163c4a11628f55a4df523b3ef8360405161094391815260200190565b60405180910390a3505050565b60006020808352835180602085015260005b8181101561097e57858101830151858201604001528201610962565b506000604082860101526040601f19601f8301168501019250505092915050565b80356001600160a01b03811681146109b657600080fd5b919050565b600080604083850312156109ce57600080fd5b6109d78361099f565b946020939093013593505050565b6000806000606084860312156109fa57600080fd5b610a038461099f565b9250610a116020850161099f565b9150604084013590509250925092565b600060208284031215610a3357600080fd5b5035919050565b600060208284031215610a4c57600080fd5b610a558261099f565b9392505050565b60008060408385031215610a6f57600080fd5b610a788361099f565b9150610a866020840161099f565b90509250929050565b600181811c90821680610aa357607f821691505b602082108103610ac357634e487b7160e01b600052602260045260246000fd5b50919050565b8082018082111561036657634e487b7160e01b600052601160045260246000fdfea264697066735822122048b41dd0bce51d9dc58e777b87434fc9533011fb717a215cada6a31b35d732b564736f6c63430008180033",
  "linkReferences": {},
  "deployedLinkReferences": {}
}